:020000040800F2
:10000000B1AA010000000000000000000000000094
:1000100000000000000000000000000000000000E0
:1000200000000000000000000000000000000000D0
:1000300000000000000000000000000000000000C0
:1000400000000000000000000000000000000000B0
:1000500000000000000000000000000000000000A0
:100060000000000000000000000000000000000090
:100070000000000000000000000000000000000080
:100080000000000000000000000000000000000070
:100090000000000000000000000000000000000060
:1000A0000000000000000000000000000000000050
:1000B0000000000000000000000000000000000040
:1000C0000000000000000000000000000000000030
:1000D0000000000000000000000000000000000020
:1000E0000000000000000000000000000000000010
:1000F0000000000000000000000000000000000000
:1001000000000000000000000000000000000000EF
:1001100000000000000000000000000000000000DF
:1001200000000000000000000000000000000000CF
:1001300000000000000000000000000000000000BF
:1001400000000000000000000000000000000000AF
:100150000000000000000000000000007370043088
:10016000170500001305C5FF8545F605637BB5003F
:1001700089816378B500170500001305C5002E9529
:1001800002859302002073A0027D970200009382F3
:1001900062E773907230971200009382E2D67390F8
:1001A000C27E73E0C07E971200009382A2CD73904E
:1001B0005230970100189381E16C178100181301E8
:1001C00061E417150000130525389705001893857D
:1001D00065E317060018130666EB63FAC500832271
:1001E000050023A0550011059105E3EAC5FE17059A
:1001F00000181305A5E9970500189385A5F2637704
:10020000B500232005001105E36DB5FE73F0023241
:10021000171500001305050997100000E78020045A
:1002200097100000E780800B97100000E780C0A1C6
:100230000145814597000000E780000C171300007E
:100240006700E30201A073E00232828073F00232A1
:0402500082800000A8
:100280000A50726F6772616D2068617320657869CA
:10029000746564207769746820636F64653A000050
:1002A000307800006E6D690A0000000074726170A1
:1002B0000A00000001000000040000000700000028
:1002C0000E00000002000000050000000800000011
:1002D000000000000300000006000000090000000C
:1002E0000F0000000A0000000B0000000C000000DE
:1002F0000D0000005971B70500081306000493852E
:10030000452B0A8586D6A2D4CAD0CECED6CADAC8A4
:10031000DEC6E2C4A6D2D2CC97100000E780A002CD
:1003200097100000E78080CC97100000E78020D075
:1003300097100000E78020D797100000E78060DE6C
:1003400001453724014097100000E780C0928149A1
:1003500097100000E78040A77D5C814A01491304A3
:100360000440054B930B803E8144894522858504DA
:1003700097000000E78060406311650522859700C3
:100380000000E780003F2A8A9375F50F114597100A
:100390000000E780C0D793558A40154597100000AC
:1003A000E780E0D6528597100000E78060A9894574
:1003B000228597000000E780E03C97100000E7806E
:1003C00000C645D597100000E78060CA0509971060
:1003D0000000E78060D0631C790113891A00D6857C
:1003E0000145CA8A97100000E78060D20149971042
:1003F0000000E78020D62A8A634505028509630349
:10040000AC008149980093172A00BA9783A707FC8C
:10041000939549000545BE9597100000E78020CFD1
:10042000528C93D58440094597100000E78020CE78
:10043000A6850D4597100000E78060CD8545228593
:1004400097000000E780E03005B74111B727014071
:1004500006C693870740630BF500B73701409387C3
:1004600007806303F502B24041018280130590309A
:1004700097000000E780E04E13059030B240410144
:10048000170300006700634F1305A03097000000BA
:10049000E780204D1305A030D5B7B727014003A74B
:1004A0004740B706F1FFFD16758F23A2E74003A76B
:1004B0004740598D23A2A740828093F7051013F778
:1004C000054089890DC289C75C4193E707105CC16B
:1004D00009C75C4193E707405CC189C51C4593E7A8
:1004E00027001CC5828089C75C4193F7F7EF5CC188
:1004F00009C75C4193F7F7BF5CC1EDD51C45F59B7F
:10050000CDB71C4599C5056713070780D98F1CC552
:1005100082807D771307F77FF98FD5BF1C45858BC8
:1005200089E71C4593E717001CC582801C4513070B
:10053000850093E787001CC51C43A18BF5FF1C4574
:1005400093E747001CC51C43918BF5FF828037273A
:10055000014083278740B7068000D58F2324F740CA
:10056000828085476386F50089476382F502828031
:100570005C55370710FF7D17F98F5CD55C557D16EC
:1005800052063707F000798E5D8E50D582801C5D53
:100590003707D0FF7D17F98F1CDD1C5D7D165206D5
:1005A00037073000798E5D8E10DD828015476363DA
:1005B000B704B385E50203284503FD47B397B700A9
:1005C00093C7F7FFB3F70701B315B600DD8D4CD91C
:1005D000A54763E9C7068D473306F6020C491D4758
:1005E0003317C7001347F7FF6D8F3396C600598E38
:1005F00010C98280AD4763E3B702E915B385E50210
:1006000003280503FD47B397B70093C7F7FFB3F778
:100610000701B315B600DD8D0CD95DBFBD47E3E919
:10062000B7FAD115B385E5020328C502FD47B39794
:10063000B70093C7F7FFB3F70701B315B600DD8D19
:100640004CD579B7C54763E1C7028D4759163306C4
:10065000F60258459D47B397C70093C7F7FFF98F38
:100660003396C600D18F5CC582801C5D7D47032810
:100670008503D1838D8BB385B740ED57B385F502E4
:10068000A547BD053317B7001347F7FF33770701B9
:10069000B315B600D98D0CDD63E1C7020D473306F3
:1006A000E6021C491D473317C7001347F7FF7D8F2C
:1006B0003396C600598E10C98280C54763E1C702D0
:1006C0008D4759163306F60258459D47B397C70024
:1006D00093C7F7FFF98F3396C600D18F5CC5828030
:1006E00085476386F5008947638DF5008280144550
:1006F000B705F2FFFD15ED8E14C51845518F18C5CD
:1007000082801845E576FD16758F18C51C45D18F7A
:100710001CC5828093F71500898909CE91C71C45B5
:1007200037071000D98F1CC589C51C452167D98F93
:100730001CC5828099C71C453707F0FF7D17F98FCC
:100740001CC5E5D91C4561777D17F98FD5B793F79F
:10075000150091C71C4537074000D98F1CC58989F2
:1007600091C51C4537072000D98F1CC5828068457C
:1007700042054181828008416D8D3335A000828021
:100780001C4193C5F5FFFD8D0CC1828041111305FD
:10079000D04106C697000000E780A01CB2401305B8
:1007A000D0414101170300006700231D3777004047
:1007B0008327074011E593E717002320F740828045
:1007C000C166D58FDDBF09E9377700408327074031
:1007D000F59B2320F7408280B776004083A7064030
:1007E00001777D17F98F23A0F640828085471DE5AC
:1007F000638CF50089C58947638DF5008280B777E2
:10080000004023A4C7408280B777004023A6C7409A
:100810008280B777004023A8C7408280638CF500B0
:1008200089C58947638DF5008280B777004023AA88
:10083000C7408280B777004023ACC7408280B7773B
:10084000004023AEC740828009E937770040832704
:100850000740ED9B2320F7408280B776004083A7B6
:1008600006403707FCFF7D17F98F23A0F6408280F2
:10087000B777004003A7074019E91377F7F323A0E0
:10088000E74003A70740D98D23A0B7408280B70671
:1008900040FFFD16758F23A0E74003A70740C20560
:1008A000DDB793F7050193F8F50099C3B3E8C800E5
:1008B0008147054EBD4E130F8002930F80042143E4
:1008C0003316FE00758E1DC2139727008322050084
:1008D0003398EE001348F8FF337858003397E80058
:1008E000336707016399E50550C918C18507E39986
:1008F00067FC054EBD4E130F8002930F80044143E9
:100900003316FE00758E05C6139727000117832244
:1009100045003398EE001348F8FF337858003397BA
:10092000E80033670701639CE50150C958C185079A
:10093000E39867FC8280E39AF5FB10C97DB7E397E3
:10094000F5FF10C9E5B7B7170240135765003E978A
:1009500014438547B397A700D58F1CC38280B71770
:100960000240135765003E9714438547B397A7008D
:10097000D58F1CC38280B7170240135765003E977E
:1009800014438547B397A70093C7F7FFF58F1CC3A0
:100990008280B7170240DC433747FFEF7D17F98F9E
:1009A0001547630EE5006369A7000D476370A70252
:1009B000371702405CC382801D47E31BE5FE3A0502
:1009C0003177798D5D8DB707001011A03A05C98F79
:1009D000C5B7B71702409843B706FFE0B1061367E3
:1009E000170098C3D843758FD8C39843B706F7FE4E
:1009F000FD16758F98C39843B706FCFFFD16758FDB
:100A000098C3D843B70601DFFD16758FD8C323A658
:100A100007029843B706F7EAFD16758F98C33707A4
:100A2000FF0098C794434167D98E94C39307F7FF9B
:100A30003717024014431396E60063440600FD177F
:100A4000F5FBB717024098439316E70063C306000F
:100A500001A0D843B706C4DFFD16D8C3D843D8C316
:100A6000D84313670740D8C3D843758FD8C3D8433A
:100A7000B7062920558FD8C3D857BD76758FD8D7DC
:100A8000D857C166938616F1558FD8D79843B706C5
:100A90000004558F98C3B717024098439316470038
:100AA000E3DD06FE9843B7060010558F98C3B717CD
:100AB0000240984393162700E3DD06FE9843B706ED
:100AC0000001558F98C3B7170240984393166700EB
:100AD000E3DD06FED843719BD8C3D84313672700D4
:100AE000D8C3371702405C43A18BF5DF8280797150
:100AF000B705000822D47D462A84938505280A85F7
:100B000006D697100000E780008479468A8509455B
:100B100097100000E7808084A285094597000000B7
:100B2000E780E001B705000805469385052B0945D8
:100B300097100000E780808201A079714ECEAE89C7
:100B4000B705000809469385052A22D426D24AD043
:100B500052CC56CA06D62A89714497000000E78015
:100B6000E07F3D4AA54AF154B3178A00B3F7370135
:100B7000B3D7870093F7F70F63ECFA029387070365
:100B800093F7F70F05469305F1004A857114A30703
:100B9000F10097000000E780607CE31794FCB250FE
:100BA000225492540259F249624AD24A45618280E3
:100BB00093877703F1B7B70700D223800700A38597
:100BC00007001205B71700D23E9563E3A7008280A5
:100BD00023A00700C107D5BFF327503093F707FCC8
:100BE00093E73700739057308280B70500084111B2
:100BF00015469385452A054506C697000000E780FF
:100C0000E075054597000000E780A0EE411193478D
:100C1000F5FF22C406C6139747012A8409E7970007
:100C20000000E780C0FCB705000815469385C52A7B
:100C3000054597000000E78060722285970000005C
:100C4000E78020EB411106C697000000E780A0D89E
:100C50001305700597000000E78020F6970000005C
:100C6000E780C0F7B240410117F3FFFF6700E35D83
:100C70008280411126C2AA841305206006C622C4C0
:100C800097000000E78060CC13059060970000009B
:100C9000E780A0CB0D4597000000E780C0CF371458
:100CA000014013050480A14641468145970000009C
:100CB000E78060BF91464146814513050480970057
:100CC0000000E78040BE372401401305044097F040
:100CD000FFFFE780C077014597F0FFFFE780207CAA
:100CE000014689451305044097F0FFFFE780207D0A
:100CF0000146930500101305044097F0FFFFE780BD
:100D0000007C81451305044097F0FFFFE780A07F3A
:100D1000054685451305044097000000E780A08440
:100D200089460D4681451305044097000000E78081
:100D3000208837060E008545130504409700000003
:100D4000E780409A0546854513050440970000005A
:100D5000E780809C9DCC0546930500401305044028
:100D600097F0FFFFE780A07505468945130504400D
:100D700097F0FFFFE780207F97F0FFFFE780607D1F
:100D80009D46454681451305044097000000E780D5
:100D9000008E372401401305044097F0FFFFE780E1
:100DA00020781305044097F0FFFFE7806078130573
:100DB00004402244B240924485454101170300009B
:100DC0006700239941111305206006C697000000B3
:100DD000E780A0B71305D07197000000E780E0B668
:100DE00037150140C1460D46814513050580970022
:100DF0000000E78040AB97000000E7806099014564
:100E000097000000E78080A481450145970000001D
:100E1000E78040A6014597000000E780009B014560
:100E20001306F07F814597000000E780609CB24088
:100E30000145410117030000670083971316050160
:100E4000418281450145170300006700639A000055
:100E50000000000000000000000000000000000092
:100E60000000000000000000000000000000000082
:100E70000000000000000000000000000000000072
:100E80005D7106C012C216C41AC61EC82ACA2ECC6C
:100E900032CE36D03AD23ED442D646D872DA76DC5A
:100EA0007ADEFEC0F322103496C0F322003096C2E0
:100EB000F322407C96C4732520348A859700000075
:100EC000E78000D5864273901234964273900230C8
:100ED000A6427390427C82401242A2423243C243F5
:100EE0005245E245724682561257A2573258C258AE
:100EF000525EE25E725F864F6161730020300000D7
:100F0000000000005D7106C012C216C41AC61EC8D9
:100F10002ACA2ECC32CE36D03AD23ED442D646D889
:100F200072DA76DC7ADEFEC073D0E87E7350F97E2A
:100F300073D0B97EF390D07E73700430B642739054
:100F4000427CA642739012349642739022348240BF
:100F50001242A2423243C2435245E2457246825691
:100F60001257A2573258C258525EE25E725F864FE5
:100F7000616173002030AA82B68E214363C46E0083
:100F80009102E11E8A0E3D433313D3011343F3FF55
:100F9000AE83B3E3C300B393D30103AE0200337E49
:100FA0006E00336E7E0023A0C2018280F18D2D8EF3
:100FB0004206D18D0CC982804CC982804CC582808A
:100FC0000C458280B712024003A3C2013363A30021
:100FD00023AE62008280B712024003A38201336312
:100FE000A30023AC62008280711106C041459700C6
:100FF0000000E78060FDB71200401303B00623A491
:1010000062021303703E23A6620223A80200054376
:1010100023A06200824011018280B712004003A524
:10102000020119C123A802008280711106C0214566
:1010300097000000E78060FA37150140130505C0EE
:1010400081450D4681460D4797000000E780E0F29C
:101050008506E39BE6FE82401101828097F2FF172E
:10106000938242FA038502008280711106C037150F
:101070000140130505C097F2FF179382A2F88385FC
:101080000200FD1563D305009D452380B2001D4677
:1010900097000000E780C0F1038502008240110143
:1010A0008280711106C0214597000000E780E0F2C0
:1010B00037150140130505C081450D46A14641473E
:1010C00097000000E78060EB8506E39BE6FE824028
:1010D00011018280711106C097F2FF179382C2F24C
:1010E00083A20200AA9237150140130505C083C5EB
:1010F0000200A20537060100130606F09700000063
:10110000E78000EB82401101828097F2FF17938203
:10111000A2EF83A20200AA922380B2008280711102
:1011200006C0114597000000E78020EB371501400D
:101130001305058081451146954625479700000017
:10114000E780A0E38506E39BE6FE824011018280F2
:10115000711106C07D5E97FEFF17938EBEEB03A351
:101160000E009303F3FF23A07E006397030423A0E4
:101170006E00371501401305058097000000E780D9
:1011800060E49581BD898DC985813335B000330315
:10119000A00085813335B0002A9385813335B000B6
:1011A0002A9397000000E780A0EB0A05336EA300A6
:1011B0001303002023A06E007285824011018280FB
:1011C00097F2FF17938252E523900200828097F2F4
:1011D000FF17938272E403D30200A5430503137E35
:1011E000F30063D8C3031903135E4300137EFE00AC
:1011F00063D1C30313030306135E8300137EFE0053
:1012000063D9C30113030360135EC30063D3C30137
:10121000014323906200828097F2FF179382D2DF0E
:1012200003D50200828097F2FF17938212DF03A397
:1012300002007D1323A06200635003021303F00831
:1012400023A0620097F2FF17938202DC03A302003F
:101250001343130023A062008280AA8581460146C1
:1012600001451703000067008314411122C406C61C
:10127000970700009387671C2A8491C781459700D0
:101280000000E780801B970700009387A72B884307
:101290001C5591C38297228597000000E7806085E6
:1012A0004111970700009387272A22C417040000E2
:1012B000130484291D8C26C206C60984BE8411E449
:1012C000B24022449244410182807D14931724004D
:1012D000A6979C438297E5B7411197070000938733
:1012E000A72622C417040000130404261D8C26C25E
:1012F0004AC006C6098481443E89639684029707E2
:10130000000093876724170400001304E4231D8C56
:10131000098481443E89639F8400B2402244924400
:1013200002494101828093972400CA979C43850417
:101330008297E1B793972400CA979C4385048297CC
:10134000D9BF2A8309CA83830500230073007D1651
:10135000050385056DFA828097F7FF17938787D27B
:10136000B2862E86AA858843170300006700830093
:10137000411122C42A842E85B285368697F7FF173D
:1013800023AE07D806C697000000E7808017FD57F8
:101390006319F50097F7FF17938747D89C4391C3CC
:1013A0001CC0B24022444101828097F7FF17938707
:1013B000E7CD9C432A8E8DE717F7FF17130747CD1C
:1013C00097F7FF1723A4E7CC17F5FFF7130585C39D
:1013D000BA8719C51C4117F5FF17232FF5D2BA8715
:1013E000D8437D487D556347E804630E0E0203A889
:1013F00087086301080493182700C29823A0C80037
:101400000323081005463316E6003363C300232088
:10141000681023A0D80889466317DE008326481089
:10142000558E2322C810930617000A07D4C3BA9713
:101430008CC701458280797152CC56CA5AC85EC6A3
:1014400006D622D426D24AD04ECE62C42A8B2E8A09
:1014500097FAFF17938A8AC3854B03A40A0011C821
:101460004440832984081389F4FF8A04A294635EAC
:101470000900B250225492540259F249624AD24AA7
:10148000424BB24B224C45618280630E0A00639549
:1014900009007D19F114E1BF93172900CE9783A7A6
:1014A0000708E39847FF5840DC407D17631827037F
:1014B00023222401F9DF032C44006388090083A65A
:1014C000091033972B01F98E89EE8297584083A734
:1014D0000A00E31487F9E30EF4FA41B723A20400EB
:1014E000D1BF93162900CE968C4283A64910758FE2
:1014F00001E75A858297D9BF2E858297C1BF4111D6
:1015000006C622C481460147814793080004730040
:1015100000002A84635A05003304804097000000CD
:10152000E780600100C17D542285B2402244410120
:0E153000828097F7FF179387E7B48843828085
:041540002000002067
:101544000700000008000020AA55AA55AA55AA556C
:10155400AA00020000FFFF8F000000070000000047
:101564000000000000000000000000000000000077
:101574000000000000000000000000000000000067
:101584000000000000000000000000000000000057
:101594000000000000000000000000000000000047
:1015A4000000000000000000000000000000000037
:1015B4000000000000000000000000000000000027
:0815C4002000002000000000DF
:040000050800015C92
:00000001FF
