:020000040800F2
:10000000B1AA010000000000000000000000000094
:1000100000000000000000000000000000000000E0
:1000200000000000000000000000000000000000D0
:1000300000000000000000000000000000000000C0
:1000400000000000000000000000000000000000B0
:1000500000000000000000000000000000000000A0
:100060000000000000000000000000000000000090
:100070000000000000000000000000000000000080
:100080000000000000000000000000000000000070
:100090000000000000000000000000000000000060
:1000A0000000000000000000000000000000000050
:1000B0000000000000000000000000000000000040
:1000C0000000000000000000000000000000000030
:1000D0000000000000000000000000000000000020
:1000E0000000000000000000000000000000000010
:1000F0000000000000000000000000000000000000
:1001000000000000000000000000000000000000EF
:1001100000000000000000000000000000000000DF
:1001200000000000000000000000000000000000CF
:1001300000000000000000000000000000000000BF
:1001400000000000000000000000000000000000AF
:100150000000000000000000000000007370043088
:10016000170500001305C5FF8545F605637BB5003F
:1001700089816378B500170500001305C5002E9529
:1001800002859302002073A0027D970200009382F3
:1001900062E773907230971200009382E2EE7390E0
:1001A000C27E73E0C07E971200009382A2E5739036
:1001B0005230970100189381E16C178100181301E8
:1001C00061E4171500001305255097050018938565
:1001D00065E317060018130666EB63FAC500832271
:1001E000050023A0550011059105E3EAC5FE17059A
:1001F00000181305A5E9970500189385A5F2637704
:10020000B500232005001105E36DB5FE73F0023241
:10021000171500001305052197100000E780201C2A
:1002200097100000E780802397100000E78000B15E
:100230000145814597000000E78000091713000081
:100240006700E31A01A073E00232828073F0023289
:0402500082800000A8
:100280000A50726F6772616D2068617320657869CA
:10029000746564207769746820636F64653A000050
:1002A000307800006E6D690A0000000074726170A1
:1002B0000A0000003134372A3235383033363923DA
:1002C000414243441D71B705000841469385452BC3
:1002D000080886CEA2CCA6CACAC8CEC6D2C4D6C288
:1002E000DAC05EDE66DA6AD86ED662DC971000008D
:1002F000E780601D0D4597100000E78000A80145CC
:1003000097100000E78000CC916B1385FBE79710F6
:100310000000E78080A597100000E78020E5971097
:100320000000E780C0E897100000E780C0EF97105A
:100330000000E78000F793870BE8014B8149014AF1
:10034000814C014401498144FD5D014D814A3EC615
:10035000014C050C97100000E78060E47DD99710F0
:100360000000E780C0E897100000E780E0EE850A13
:10037000D147B3E7FA02A1E363D949019387090A98
:10038000D28963DB4701BE8901A8635C3A01938788
:1003900009F6D289E349FAFE4E8597100000E780FE
:1003A00060C26352300763180B00014597100000CC
:1003B000E780A09B054B9307803E639CFA00930A5D
:1003C0001D00EA850145568D97100000E78020EC5E
:1003D000814A97100000E780E0EFAA8B6341051483
:1003E0001C10AA9783C707FF8504638FAD06930689
:1003F0003004639AD702930680046314D40093CC2C
:100400001C000144DDA0E39809FA8547631BFB004B
:1004100091671385F7E797100000E7800095014B7F
:1004200059BFDA8949BF63940C0C9306900363E0CB
:10043000F6029306000363FCD70693063002E382BC
:10044000D7FC9306A0026389D708814431A893069C
:1004500020046380D70C930640046384D708930676
:10046000100481446389D70A93954400BE950545DD
:1004700097100000E780A0E1CA85114597100000A1
:10048000E780E0E0E685154597100000E78020E072
:1004900093558C40094597100000E78040DFE285C6
:1004A0000D4597100000E78080DEDE8D55B5A9462A
:1004B0003309D902930640063E99130909FD63D416
:1004C000260113094006A9463364D4023304D4023A
:1004D000938607FD369495BFA9463349D902014456
:1004E000ADB7130A000A330A49030149B9BF93861D
:1004F00007FD25466368D60029463364C4023304E9
:10050000C402C9BF930630028144E39FD7F401447B
:10051000A1BF014AD9BF324A13094006B1B7FD5BFA
:1005200085BF93F7050193F8F50099C3B3E8C800B8
:100530008147054EBD4E130F8002930F8004214367
:100540003316FE00758E1DC2139727008322050007
:100550003398EE001348F8FF337858003397E800DB
:10056000336707016399E50550C918C18507E39909
:1005700067FC054EBD4E130F8002930F800441436C
:100580003316FE00758E05C61397270001178322C8
:1005900045003398EE001348F8FF3378580033973E
:1005A000E80033670701639CE50150C958C185071E
:1005B000E39867FC8280E39AF5FB10C97DB7E39767
:1005C000F5FF10C9E5B7B7170240135765003E970E
:1005D00014438547B397A700D58F1CC38280B717F4
:1005E0000240135765003E9714438547B397A70011
:1005F000D58F1CC38280B7170240135765003E9702
:1006000014438547B397A70093C7F7FFF58F1CC323
:1006100082804111B717004006C6138707C0630EDA
:10062000E5086367A70237070040930607406304A5
:10063000D506938707806309F5066312E50A13055B
:10064000004097000000E780C0F91305004035A87E
:1006500013870740630CE50637370140130707C0CF
:10066000630DE500631DF50613054040970000008B
:10067000E78020F71305404009A81305B030970024
:100680000000E78000F61305B030B24041011703C7
:100690000000670083F61305104097000000E78014
:1006A00040F413051040D5B7130520409700000013
:1006B000E78020F313052040C9BF130530409700A1
:1006C0000000E78000F213053040C1B71305504029
:1006D00097000000E780E0F0130550407DB7B2407E
:1006E00041018280C167FD17232005002312050008
:1006F0001CC52316050023070500828083D705004B
:1007000003D745009376F5BF1CD5B73701409387D3
:1007100007C0418B630AF500FD779387F73FE98FA8
:10072000370600406390C7061C4193F7F7F81CC1D9
:1007300083D72500104193F70706D18F1CC11C41B8
:100740005D8F18C19C455CD5B71700406387F602E2
:100750001C4193F7F7CF1CC183D7C500184193F70D
:100760000730D98F1CC1B7370140138707C0631604
:10077000E50003C7E50023A8E7C25C4993E717003B
:100780005CC982801C41BD9B55BF1C4193E717008B
:100790001CC182801C4193E707081CC18280231082
:1007A000050023110500231205002313050023145F
:1007B00005002315050082808547638EF50881C9F1
:1007C00089476389F5128D476387F51C82801C5128
:1007D000F99B1CD1185183570600D98F1CD11C518D
:1007E000F59B1CD1185183574600D98F1CD1B737C0
:1007F0000140138707C0631CE50418516D9B18D195
:10080000145103572600558F18D118515D9B18D1EC
:10081000145103576600558F18D103A747C01377AB
:10082000F7EF23A2E7C083A647C003578600558F82
:1008300023A2E7C003A747C01377F7DF23A2E7C0CF
:1008400083A647C00357A600558F23A2E7C01C4DBF
:10085000F19B1CCD82801C51BD9B1CD1835706008F
:1008600018519207D98F1CD11C5193F7F7FD1CD159
:100870008357460018519207D98F1CD1B7370140D2
:10088000138707C06314E50618511377F7FB18D1D7
:100890000357260014511207558F18D1185113779A
:1008A000F7F718D10357660014511207558F18D166
:1008B00003A747C01377F7BF23A2E7C003578600FB
:1008C00083A647C00A07558F23A2E7C003A747C0E6
:1008D000FD769386F67F758F23A2E7C00357A600A7
:1008E00083A647C00A07558F23A2E7C01C4D93F784
:1008F000F7CF85B71C5193F7F7EF1CD1835706004C
:100900001851A207D98F1CD11C5193F7F7DF1CD1C6
:10091000835746001851A207D98F1CD1B737014021
:10092000138707C06315E50618511377F7BF18D171
:100930000357260014512207558F18D11851FD7600
:100940009385F67F6D8F18D1035766000C51FD1605
:1009500022074D8F18D103A747C0F98E23A2D7C015
:100960000357860083A647C01207558F23A2E7C00E
:1009700003A747C0F976FD16758F23A2E7C003577A
:10098000A60083A647C01207558F23A2E7C05C4D7F
:10099000F19B5CCD82801C517D777D17F98F1CD136
:1009A000835706001851B207D98F1CD11C51797793
:1009B0007D17F98F1CD1835746001851B207D98F84
:1009C0001CD1B7370140138707C06311E50203A7A5
:1009D00047C0F176FD16758F23A2E7C00357860046
:1009E00083A647C01A07558F23A2E7C05C4D93F733
:1009F000F7CF45B785476382F50281C9894763868A
:100A0000F5028D47638BF50282801C4D93F7F7F852
:100A10001CCD1C4D5D8E10CD82801C4D65777D17E1
:100A2000F98F1CCD1C4D2206F5B75C4D93F7F7F8F6
:100A30005CCD5C4D5D8E50CD82805C4D65777D17C1
:100A4000F98F5CCD5C4D2206F5B78547638CF500C8
:100A500081C98947638AF5008D476389F5008280E3
:100A600050D9828010DD828050DD828030C182804A
:100A700085476381F50281C989476386F5028D4701
:100A8000638AF50282801C4DDD9B1CCD1C4D5D8E62
:100A900010CD82801C4D7D771307F77FF98F1CCD19
:100AA0001C4D2206EDB75C4DDD9B5CCD5C4D5D8E33
:100AB00050CD82805C4D7D771307F77FF98F5CCD39
:100AC0005C4D2206EDB7B71702409843B706FFE02A
:100AD000B1061367170098C3D843758FD8C39843DE
:100AE000B706F7FEFD16758F98C39843B706FCFF4F
:100AF000FD16758F98C3D843B70601DFFD16758FB5
:100B0000D8C323A607029843B706F7EAFD16758FE8
:100B100098C33707FF0098C794434167D98E94C3A1
:100B20009307F7FF3717024014431396E600634418
:100B30000600FD17F5FBB717024098439316E70030
:100B400063C3060001A0D843B706C4DFFD16D8C3AF
:100B5000D843D8C3D84313670740D8C3D843758F49
:100B6000D8C3D843B7062920558FD8C3D857BD76E8
:100B7000758FD8D7D857C166938616F1558FD8D7B9
:100B80009843B7060004558F98C3B717024098439F
:100B900093164700E3DD06FE9843B7060010558F15
:100BA00098C3B7170240984393162700E3DD06FE6B
:100BB0009843B7060001558F98C3B7170240984372
:100BC00093166700E3DD06FED843719BD8C3D84374
:100BD00013672700D8C3371702405C43A18BF5DFAA
:100BE00082807971B705000822D47D462A849385D6
:100BF00005280A8506D697100000E780C08C794644
:100C00008A85094597100000E780408DA285094537
:100C100097000000E780E001B705000805469385CE
:100C2000052B094597100000E780408B01A07971E2
:100C30004ECEAE89B705000809469385052A22D411
:100C400026D24AD052CC56CA06D62A897144971069
:100C50000000E780A0883D4AA54AF154B3178A00F6
:100C6000B3F73701B3D7870093F7F70F63ECFA02B6
:100C70009387070393F7F70F05469305F1004A851D
:100C80007114A307F10097100000E7802085E31797
:100C900094FCB250225492540259F249624AD24A08
:100CA0004561828093877703F1B7B70700D223802D
:100CB0000700A38507001205B71700D23E9563E32E
:100CC000A700828023A00700C107D5BFF3275030BB
:100CD00093F707FC93E73700739057308280B7058E
:100CE0000008411115469385452A054506C697001B
:100CF0000000E780A07E054597000000E780A0EE99
:100D000041119347F5FF22C406C6139747012A8471
:100D100009E797000000E780C0FCB705000815460A
:100D20009385C52A054597000000E780207B228532
:100D300097000000E78020EB411106C697000000F5
:100D4000E780A0D81305700597000000E78020F623
:100D500097000000E780C0F7B240410117F3FFFFA2
:100D60006700A34E82802A86854537050040170319
:100D700000006700C3CD397122DC2A84130520608E
:100D800006DE4ED626DA4AD897000000E780E083D8
:100D9000130500609379140097000000E780E0825B
:100DA000638D09003715014085460D46E145130561
:100DB000058097F0FFFFE780007713792400630D2B
:100DC00009003715014089460D46E14513050580A8
:100DD00097F0FFFFE78020759374440081CC3715AE
:100DE000014091460D46E1451305058097F0FFFF50
:100DF000E7806073218801CC37150140A1460D467C
:100E0000E1451305058097F0FFFFE780C0711305EA
:100E1000007097F0FFFFE780407B3705004097F0B8
:100E2000FFFFE780407F080897000000E780C08B45
:100E30009307B0063EC891679387F7E70C0837051C
:100E400000403ECC231A0100231E0100230F0100A5
:100E500097000000E780C08A480097000000E78004
:100E6000409485473EC202C402C6638A090050000E
:100E700081453705004097000000E7802094630A11
:100E80000900500085453705004097000000E780C5
:100E9000E09289C85000894537050040970000005E
:100EA000E780C09109C850008D4537050040970084
:100EB0000000E780A090638D09020D661306F6ED31
:100EC00081453705004097000000E78040B81306D1
:100ED000000681453705004097000000E780C0B15B
:100EE000014681453705004097000000E78080B843
:100EF000630D09020D661306F6ED854537050040C2
:100F000097000000E780A0B413060006854537056A
:100F1000004097000000E78020AE01468545370578
:100F2000004097000000E780E0B485CC0D66130612
:100F3000F6ED89453705004097000000E78020B1B5
:100F40001306000689453705004097000000E7803A
:100F5000A0AA014689453705004097000000E780B8
:100F600060B105CC0D661306F6ED8D4537050040E2
:100F700097000000E780A0AD130600068D453705F9
:100F8000004097000000E78020A701468D45370507
:100F9000004097000000E780E0AD3705004097F083
:100FA000FFFFE780607F3705004097F0FFFFE78095
:100FB000007EF2506254D2544259B259216182806B
:100FC0002A8681453705004017030000670023A8E3
:100FD0000000000000000000000000000000000011
:100FE0000000000000000000000000000000000001
:100FF00000000000000000000000000000000000F1
:101000005D7106C012C216C41AC61EC82ACA2ECCEA
:1010100032CE36D03AD23ED442D646D872DA76DCD8
:101020007ADEFEC0F322103496C0F322003096C25E
:10103000F322407C96C4732520348A8597000000F3
:10104000E78040CC8642739012349642739002300F
:10105000A6427390427C82401242A2423243C24373
:101060005245E245724682561257A2573258C2582C
:10107000525EE25E725F864F616173002030000055
:10108000000000005D7106C012C216C41AC61EC858
:101090002ACA2ECC32CE36D03AD23ED442D646D808
:1010A00072DA76DC7ADEFEC073D0E87E7350F97EA9
:1010B00073D0B97EF390D07E73700430B6427390D3
:1010C000427CA6427390123496427390223482403E
:1010D0001242A2423243C2435245E2457246825610
:1010E0001257A2573258C258525EE25E725F864F64
:1010F000616173002030AA82B68E214363C46E0002
:101100009102E11E8A0E3D433313D3011343F3FFD3
:10111000AE83B3E3C300B393D30103AE0200337EC7
:101120006E00336E7E0023A0C2018280F18D2D8E71
:101130004206D18D0CC982804CC982804CC5828008
:101140000C458280B712024003A3C2013363A3009F
:1011500023AE62008280B712024003A38201336390
:10116000A30023AC62008280711106C04145970044
:101170000000E78060FDB71200401303B00623A40F
:1011800062021303703E23A6620223A802000543F5
:1011900023A06200824011018280B712004003A5A3
:1011A000020119C123A802008280711106C02145E5
:1011B00097000000E78060FA37150140130505C06D
:1011C00081450D4681460D4797000000E780E0F21B
:1011D0008506E39BE6FE82401101828097F2FF17AD
:1011E000938242E2038502008280711106C03715A6
:1011F0000140130505C097F2FF179382A2E0838593
:101200000200FD1563D305009D452380B2001D46F5
:1012100097000000E780C0F10385020082401101C1
:101220008280711106C0214597000000E780E0F23E
:1012300037150140130505C081450D46A1464147BC
:1012400097000000E78060EB8506E39BE6FE8240A6
:1012500011018280711106C097F2FF179382C2DAE2
:1012600083A20200AA9237150140130505C083C569
:101270000200A20537060100130606F097000000E1
:10128000E78000EB82401101828097F2FF17938282
:10129000A2D783A20200AA922380B2008280711199
:1012A00006C0114597000000E78020EB371501408C
:1012B0001305058081451146954625479700000096
:1012C000E780A0E38506E39BE6FE82401101828071
:1012D000711106C07D5E97FEFF17938EBED303A3E8
:1012E0000E009303F3FF23A07E006397030423A063
:1012F0006E00371501401305058097000000E78058
:1013000060E49581BD898DC985813335B000330393
:10131000A00085813335B0002A9385813335B00034
:101320002A9397000000E780A0EB0A05336EA30024
:101330001303002023A06E00728582401101828079
:1013400097F2FF17938252CD23900200828097F28A
:10135000FF17938272CC03D30200A5430503137ECB
:10136000F30063D8C3031903135E4300137EFE002A
:1013700063D1C30313030306135E8300137EFE00D1
:1013800063D9C30113030360135EC30063D3C301B6
:10139000014323906200828097F2FF179382D2C7A5
:1013A00003D50200828097F2FF17938212C703A32E
:1013B00002007D1323A06200635003021303F008B0
:1013C00023A0620097F2FF17938202C403A30200D6
:1013D0001343130023A062008280AA858146014640
:1013E00001451703000067008314411122C406C69B
:1013F000970700009387671C2A8491C7814597004F
:101400000000E780801B970700009387A72B884385
:101410001C5591C38297228597F0FFFFE780A07C3F
:101420004111970700009387272A22C41704000060
:10143000130484291D8C26C206C60984BE8411E4C7
:10144000B24022449244410182807D1493172400CB
:10145000A6979C438297E5B74111970700009387B1
:10146000A72622C417040000130404261D8C26C2DC
:101470004AC006C6098481443E8963968402970760
:10148000000093876724170400001304E4231D8CD5
:10149000098481443E89639F8400B240224492447F
:1014A00002494101828093972400CA979C43850496
:1014B0008297E1B793972400CA979C43850482974B
:1014C000D9BF2A8309CA83830500230073007D16D0
:1014D000050385056DFA828097F7FF17938787BA12
:1014E000B2862E86AA858843170300006700830012
:1014F000411122C42A842E85B285368697F7FF17BC
:1015000023AE07C006C697000000E7808017FD578E
:101510006319F50097F7FF17938747C09C4391C362
:101520001CC0B24022444101828097F7FF17938785
:10153000E7B59C432A8E8DE717F7FF17130747B5CA
:1015400097F7FF1723A4E7B417F5FFF7130585AB4B
:10155000BA8719C51C4117F5FF17232FF5BABA87AB
:10156000D8437D487D556347E804630E0E0203A807
:1015700087086301080493182700C29823A0C800B5
:101580000323081005463316E6003363C300232007
:10159000681023A0D80889466317DE008326481008
:1015A000558E2322C810930617000A07D4C3BA9792
:1015B0008CC701458280797152CC56CA5AC85EC622
:1015C00006D622D426D24AD04ECE62C42A8B2E8A88
:1015D00097FAFF17938A8AAB854B03A40A0011C8B8
:1015E0004440832984081389F4FF8A04A294635E2B
:1015F0000900B250225492540259F249624AD24A26
:10160000424BB24B224C45618280630E0A006395C7
:1016100009007D19F114E1BF93172900CE9783A724
:101620000708E39847FF5840DC407D1763182703FD
:1016300023222401F9DF032C44006388090083A6D8
:10164000091033972B01F98E89EE8297584083A7B2
:101650000A00E31487F9E30EF4FA41B723A2040069
:10166000D1BF93162900CE968C4283A64910758F60
:1016700001E75A858297D9BF2E858297C1BF411154
:1016800006C622C4814601478147930800047300BF
:1016900000002A84635A050033048040970000004C
:1016A000E780600100C17D542285B240224441019F
:0E16B000828097F7FF179387E79C884382801C
:0416C00020000020E6
:1016C4000700000008000020AA55AA55AA55AA55EB
:1016D400AA00020000FFFF8F0000000700000000C6
:1016E40000000000000000000000000000000000F6
:1016F40000000000000000000000000000000000E6
:1017040000000000000000000000000000000000D5
:1017140000000000000000000000000000000000C5
:1017240000000000000000000000000000000000B5
:1017340000000000000000000000000000000000A5
:0817440020000020000000005D
:040000050800015C92
:00000001FF
