:020000040800F2
:10000000B1AA010000000000000000000000000094
:1000100000000000000000000000000000000000E0
:1000200000000000000000000000000000000000D0
:1000300000000000000000000000000000000000C0
:1000400000000000000000000000000000000000B0
:1000500000000000000000000000000000000000A0
:100060000000000000000000000000000000000090
:100070000000000000000000000000000000000080
:100080000000000000000000000000000000000070
:100090000000000000000000000000000000000060
:1000A0000000000000000000000000000000000050
:1000B0000000000000000000000000000000000040
:1000C0000000000000000000000000000000000030
:1000D0000000000000000000000000000000000020
:1000E0000000000000000000000000000000000010
:1000F0000000000000000000000000000000000000
:1001000000000000000000000000000000000000EF
:1001100000000000000000000000000000000000DF
:1001200000000000000000000000000000000000CF
:1001300000000000000000000000000000000000BF
:1001400000000000000000000000000000000000AF
:100150000000000000000000000000007370043088
:10016000170500001305C5FF8545F605637BB5003F
:1001700089816378B500170500001305C5002E9529
:1001800002859302002073A0027D970200009382F3
:1001900062E773907230970200009382E246739098
:1001A000C27E73E0C07E970200009382A23D7390EE
:1001B0005230970100189381617017810018130164
:1001C00061E417150000130565BF970500189385B6
:1001D00065E3170600181306E6EE63FAC5008322EE
:1001E000050023A0550011059105E3EAC5FE17059A
:1001F0000018130525ED97050018938525F66377FC
:10020000B500232005001105E36DB5FE73F0023241
:10021000171500001305659097100000E780808B8C
:1002200097100000E780E09297000000E780E02F41
:100230000145814597000000E780607717130000B3
:100240006700438A01A073E00232828073F00232B9
:0402500082800000A8
:100280000A50726F6772616D2068617320657869CA
:10029000746564207769746820636F64653A000050
:1002A000307800006E6D690A0000000074726170A1
:1002B0000A000000B71702409843B706FFE0B106F6
:1002C0001367170098C3D843758FD8C39843B706F0
:1002D000F7FEFD16758F98C39843B706FCFFFD1611
:1002E000758F98C3D843B70601DFFD16758FD8C345
:1002F00023A607029843B706F7EAFD16758F98C341
:100300003707FF0098C794434167D98E94C393077A
:10031000F7FF3717024014431396E60063440600C4
:10032000FD17F5FBB717024098439316E70063C328
:10033000060001A0D843B706C4DFFD16D8C3D843D2
:10034000D8C3D84313670740D8C3D843758FD8C3E1
:10035000D843B7062920558FD8C3D857BD76758F97
:10036000D8D7D857C166938616F1558FD8D79843FA
:10037000B7060004558F98C3B717024098439316E9
:100380004700E3DD06FE9843B7060010558F98C37B
:10039000B7170240984393162700E3DD06FE984303
:1003A000B7060001558F98C3B717024098439316BC
:1003B0006700E3DD06FED843719BD8C3D8431367BB
:1003C0002700D8C3371702405C43A18BF5DF82803A
:1003D0007971B705000822D47D462A8493850528C3
:1003E0000A8506D697000000E780407D79468A8519
:1003F000094597000000E780C07DA2850945970068
:100400000000E780E001B705000805469385052B4D
:10041000094597000000E780C07B01A079714ECEAE
:10042000AE89B705000809469385052A22D426D24D
:100430004AD052CC56CA06D62A8971449700000089
:10044000E78020793D4AA54AF154B3178A00B3F7F3
:100450003701B3D7870093F7F70F63ECFA0293875E
:10046000070393F7F70F05469305F1004A857114CA
:10047000A307F10097000000E780A075E31794FC44
:10048000B250225492540259F249624AD24A45610A
:10049000828093877703F1B7B70700D223800700E4
:1004A000A38507001205B71700D23E9563E3A700A6
:1004B000828023A00700C107D5BFF327503093F7F0
:1004C00007FC93E73700739057308280B705000828
:1004D000411115469385452A054506C6970000003B
:1004E000E780206F054597000000E780A0EE4111EE
:1004F0009347F5FF22C406C6139747012A8409E7EC
:1005000097000000E780C0FCB705000815469385FA
:10051000C52A054597000000E780A06B228597005B
:100520000000E78020EB411106C697000000E7803D
:10053000A0D81305700597000000E78020F697000B
:100540000000E780C0F7B2404101170300006700D8
:10055000C3CF828000000000000000000000000007
:10056000000000000000000000000000000000008B
:10057000000000000000000000000000000000007B
:100580005D7106C012C216C41AC61EC82ACA2ECC75
:1005900032CE36D03AD23ED442D646D872DA76DC63
:1005A0007ADEFEC0F322103496C0F322003096C2E9
:1005B000F322407C96C4732520348A85970000007E
:1005C000E78020F386427390123496427390023093
:1005D000A6427390427C82401242A2423243C243FE
:1005E0005245E245724682561257A2573258C258B7
:1005F000525EE25E725F864F6161730020300000E0
:10060000000000005D7106C012C216C41AC61EC8E2
:100610002ACA2ECC32CE36D03AD23ED442D646D892
:1006200072DA76DC7ADEFEC073D0E87E7350F97E33
:1006300073D0B97EF390D07E73700430B64273905D
:10064000427CA642739012349642739022348240C8
:100650001242A2423243C2435245E245724682569A
:100660001257A2573258C258525EE25E725F864FEE
:10067000616173002030AA82B68E214363C46E008C
:100680009102E11E8A0E3D433313D3011343F3FF5E
:10069000AE83B3E3C300B393D30103AE0200337E52
:1006A0006E00336E7E0023A0C2018280F18D2D8EFC
:1006B0004206D18D0CC982804CC982804CC5828093
:1006C0000C458280B712024003A3C2013363A3002A
:1006D00023AE62008280B712024003A3820133631B
:1006E000A30023AC62008280711106C041459700CF
:1006F0000000E78060FDB71200401303B00623A49A
:1007000062021303703E23A6620223A8020005437F
:1007100023A06200824011018280B712004003A52D
:10072000020119C123A802008280711106C021456F
:1007300097000000E78060FA37150140130505C0F7
:1007400081450D4681460D4797000000E780E0F2A5
:100750008506E39BE6FE8240110182809702001825
:100760009382428A038502008280711106C0371588
:100770000140130505C0970200189382A288838563
:100780000200FD1563D305009D452380B2001D4680
:1007900097000000E780C0F103850200824011014C
:1007A0008280711106C0214597000000E780E0F2C9
:1007B00037150140130505C081450D46A146414747
:1007C00097000000E78060EB8506E39BE6FE824031
:1007D00011018280711106C0970200189382C282B3
:1007E00083A20200AA9283C50200170F0018130FFC
:1007F0006F8683430F00014E11E5854EB39E7E0048
:10080000B3E5D501A20537150140130505C037062C
:100810000100130606F097000000E78060E98240BF
:100820001101828097F2FF179382027E83A2020059
:10083000AA922380B2008280711106C011459700F0
:100840000000E78080E937150140130505808145E8
:1008500011469546254797000000E78000E285068F
:10086000E39BE6FE824011018280711106C07D5E2D
:1008700097FEFF17938EAE7C03A30E009303F3FF46
:1008800023A07E006397030423A06E003715014068
:100890001305058097000000E780C0E29581BD89BF
:1008A0008DC985813335B0003303A0008581333590
:1008B000B0002A9385813335B0002A939700000059
:1008C000E78000EA0A05336EA3001303002023A08B
:1008D0006E00728582401101828097F2FF17938229
:1008E000427623900200828097F2FF17938262750E
:1008F00003D30200A5430503137EF30063D8C303AB
:100900001903135E4300137EFE0063D1C303130378
:100910000306135E8300137EFE0063D9C301130335
:100920000360135EC30063D3C301014323906200DD
:10093000828097F2FF179382C27003D502008280F3
:1009400097F2FF179382C27003A30200630E0304A1
:1009500097FEFF17938E0E6F03A30E007D13631394
:10096000030417FFFF17130F2F6E03230F00B1426D
:1009700063D562007D1323206F0097F3FF179383E5
:10098000A36803AE030017FFFF17130F4F6B611F20
:100990006374EE01050E29A017FEFF17130E0E67F4
:1009A00023A0C30123A06E00828097000000E7808F
:1009B000E0D397000000E78080D797000000E78031
:1009C00080DE97000000E78060E7010097000000EC
:1009D000E780E0D47DD997000000E780A0F697007B
:1009E0000000E780C0D897000000E780E0DE9700B5
:1009F0000000E780C0E7E34A05FC3D8995436306B4
:100A00007506854363067500A543630F750075BFC2
:100A100097F2FF1793820264038302007D1313731E
:100A2000730023806200A1A897F2FF17938282626D
:100A3000038302000503137373002380620081A007
:100A400097F2FF179382826003A302009303F3FFE0
:100A500063D303009D4323A0720097F2FF17938294
:100A6000E25A9A922380A2008DB797F2FF179382E1
:100A7000225E03A302001343130023A06200970029
:100A80000000E780C0CE97000000E780E0D4896FC7
:100A9000FD1FE39F0FFE97000000E78040DD7D5EB5
:100AA000E31FC5FD1DB797F2FF179382225A03A3D8
:100AB00002009303F3FF63D303009D4323A072005E
:100AC00097F2FF17938282549A922380A200F5BD79
:100AD000AA8581460146014517030000670083147B
:100AE000411122C406C6970700009387671C2A8419
:100AF00091C7814597000000E780801B97070000A1
:100B00009387872B88431C5591C382972285970032
:100B10000000E780208C4111970700009387072A87
:100B200022C417040000130464291D8C26C206C6C3
:100B30000984BE8411E4B24022449244410182807F
:100B40007D1493172400A6979C438297E5B7411123
:100B5000970700009387872622C417040000130418
:100B6000E4251D8C26C24AC006C6098481443E89FC
:100B700063968402970700009387472417040000B8
:100B80001304C4231D8C098481443E89639F84001F
:100B9000B24022449244024941018280939724004A
:100BA000CA979C4385048297E1B793972400CA971C
:100BB0009C4385048297D9BF2A8309CA8383050091
:100BC000230073007D16050385056DFA828097F773
:100BD000FF179387A74EB2862E86AA8588431703F0
:100BE000000067008300411122C42A842E85B2854B
:100BF000368697F7FF1723AF075406C69700000005
:100C0000E7808017FD576319F50097F7FF17938763
:100C100067549C4391C31CC0B2402244410182806E
:100C200097F7FF179387074A9C432A8E8DE717F79C
:100C3000FF171307674997F7FF1723A5E74817F52D
:100C4000FFF71305253CBA8719C51C4117F5FF1797
:100C50002320F550BA87D8437D487D556347E80483
:100C6000630E0E0203A88708630108049318270087
:100C7000C29823A0C8000323081005463316E600D7
:100C80003363C3002320681023A0D8088946631764
:100C9000DE0083264810558E2322C81093061700C5
:100CA0000A07D4C3BA978CC701458280797152CCA8
:100CB00056CA5AC85EC606D622D426D24AD04ECECE
:100CC00062C42A8B2E8A97FAFF17938AAA3F854B14
:100CD00003A40A0011C84440832984081389F4FF3F
:100CE0008A04A294635E0900B250225492540259BD
:100CF000F249624AD24A424BB24B224C4561828051
:100D0000630E0A00639509007D19F114E1BF931782
:100D10002900CE9783A70708E39847FF5840DC4097
:100D20007D176318270323222401F9DF032C4400D5
:100D30006388090083A6091033972B01F98E89EE89
:100D40008297584083A70A00E31487F9E30EF4FA68
:100D500041B723A20400D1BF93162900CE968C423E
:100D600083A64910758F01E75A858297D9BF2E85D2
:100D70008297C1BF411106C622C4814601478147FF
:100D800093080004730000002A84635A05003304AA
:100D9000804097000000E780600100C17D542285FB
:100DA000B24022444101828097F7FF1793870731B1
:040DB0008843828072
:040DB40054000020C7
:100DB8000700000008000020F1E3C787C3F3F8F13B
:100DC800E3C7F1E3C787C3F3F8F1E3C7F1E3C787E4
:100DD800C3F3F8F1E3C7F1E3C787C3F3F8F1E3C757
:100DE800F1E3C787C3F3F8F1E3C700020000FFFF90
:100DF8008F000000FF06000007000000010000004F
:100E080004000000000000000000000000000000D6
:100E180000000000000000000000000000000000CA
:100E280000000000000000000000000000000000BA
:100E380000000000000000000000000000000000AA
:100E4800000000000000000000000000000000009A
:100E5800000000000000000000000000000000008A
:100E68000000000000000000540000200000000006
:040000050800015C92
:00000001FF
